:0400000077EF00F0A6
:100008004A82FACF2FF0FBCF30F0E9CF31F0EACFB8
:1000180032F0E1CF33F0E2CF34F0D9CF35F0DACF98
:1000280036F0F3CF37F0F4CF38F0F6CF39F0F7CF1A
:100038003AF0F8CF3BF0F5CF3CF04AC03DF04BC06A
:100048003EF04CC03FF04DC040F0F2AC26D0A0B618
:10005800A1A603D0EBEC03F020D09DB69EA603D05A
:1000680079EC00F01AD09DB89EA808D001D815D018
:100078000500FA6E1050FD6E11500AD09DBA9EAA66
:100088000CD001D80AD00500FA6E0E50FD6E0F5044
:10009800FE6EF850FF6EFA50120040C04DF03FC09F
:1000A8004CF03EC04BF03DC04AF03CC0F5FF3BC0B1
:1000B800F8FF3AC0F7FF39C0F6FF38C0F4FF37C081
:1000C800F3FF36C0DAFF35C0D9FF34C0E2FF33C0D2
:1000D800E1FF32C0EAFF31C0E9FF30C0FBFF2FC0AB
:1000E800FAFF4A92110085EF03F09E96C6AEE9D05A
:1000F800C69E000E1B6E000E0A6E000E0B6E1200DE
:1001080005B2120003C00AF004C00BF003C0D9FF07
:1001180004C0DAFFDF501A6E20EE01F00350D92632
:100128000450DA22DECF0CF0DDCF0DF0050E0326E9
:10013800000E04222B0E031808E1000E0418D8A4A0
:1001480004D0260E036E000E046E059001500318AD
:1001580004E102500418D8B40582C580020E1B6E53
:100168001200C582020E1B6E1200C5AC05D0072A0C
:10017800040EE3EC03F01200D8902C302E6E2B30D6
:100188002D6E2D50C96E2BA003D00B0E1B6E1200C6
:10019800030E1B6E1200C5AC05D0072A040EE3EC53
:1001A80003F01200C5822BC02DF02CC02EF02EC0FB
:1001B8002DF02E6A060E2D16000E2E16F00E2D109E
:1001C8002B6E2E502C6E2B80010E186E020E1B6E9D
:1001D80012001804D8B41AD00CC0D9FF0DC0DAFF29
:1001E800DECF2BF0DDCF2CF020EE03F00C50D9261B
:1001F8000D50DA22DECF08F0DDCF09F020EE02F054
:100208000C50D9260D50DA22DF50196E2BC0C9FFC9
:100218002BA003D0050E1B6E1200030E1B6E1200DE
:10022800C5AC06D0072AC59C050EE3EC03F0120006
:1002380019061928D8A40ED0050E0C26000E0D227A
:100248001A2E04D0000EE3EC03F01200C582020E51
:100258001B6E120008C0D9FF09C0DAFFDF50C96E53
:10026800084A092A1200C5AC06D0072A040EE3EC96
:1002780003F0C59C1200C586080E1B6E1200080EFE
:100288001B6EC586120008C0D9FF09C0DAFFC9CFA6
:10029800DFFF084A092A010E195ED8B404D0C59AAE
:1002A800060E1B6E03D0C58AA9EC03F0C5881200A0
:1002B800000EE3EC03F01200072A060EE3EC03F04D
:1002C80012001B50000AD8B41BD7010AD8B449D76A
:1002D800030AD8B47ED7010AD8B4A2D7070AD8B47B
:1002E800E7D7010AD8B4BFD7030AD8B4C8D7010AD8
:1002F800D8B4DED70F0AD8B4C6D7020AD8B435D7CF
:10030800010AD8B448D7D8D7B5EC03F0F28EF28CEE
:10031800000E496E5BD06D0E436E7E0E446E70EC1F
:1003280003F0D30E436E7F0E446E70EC03F0C10EE3
:10033800436E7F0E446E70EC03F0AE0E436E7F0E7C
:10034800446E70EC03F0990E436E7F0E446E70ECB1
:1003580003F0F10E436E7F0E446E70EC03F0FAEC7E
:1003680002F0496E4950DDEC02F01CD098EC03F025
:100378002DD0F3EC01F02AD00A0E59EC02F026D069
:100388000C0E59EC02F022D00A0E436E7F0E446E1A
:1003980070EC03F01BD06C0E436E7F0E446E70EC55
:1003A80003F014D04950310AD8B4E0D7030AD8B4BE
:1003B800E0D7010AD8B4E0D7070AD8B4E1D76C0A65
:1003C800D8B4E2D7200AD8B4DFD7E5D7780E4918D1
:1003D800D8B49ED7580E4918D8B49AD79CD7000ECF
:1003E800486E5AD0B80E436E7E0E446E70EC03F021
:1003F800D50E436E7E0E446E70EC03F0F00E436E25
:100408007E0E446E70EC03F0550E436E7F0E446E04
:1004180070EC03F0830E436E7F0E446E70EC03F0B5
:10042800240E436E7F0E446E70EC03F0E30E436EB1
:100438007F0E446E70EC03F0FAEC02F0486ECBECE1
:1004480003F016D0899028D0898026D0899224D0AC
:10045800898222D09B0E436E7E0E446E70EC03F0B0
:100468001BD06C0E436E7F0E446E70EC03F014D0FC
:100478004850310AD8B4E6D7030AD8B4E5D7010AF8
:10048800D8B4E4D7070AD8B4E3D76C0AD8B4E2D70B
:10049800200AD8B4DFD7E5D7780E4818D8B41200A8
:1004A800580E4818D8B412009DD7000E486E52D086
:1004B800B80E436E7E0E446E70EC03F0D50E436E9C
:1004C8007E0E446E70EC03F0F00E436E7E0E446EAA
:1004D80070EC03F0550E436E7F0E446E70EC03F023
:1004E800830E436E7F0E446E70EC03F0240E436E51
:1004F8007F0E446E70EC03F0E30E436E7F0E446E85
:1005080070EC03F0FAEC02F0486ECBEC03F00ED07E
:100518009B0E436E7E0E446E70EC03F01BD06C0E87
:10052800436E7F0E446E70EC03F014D04850310ACD
:10053800D8B410D0030AD8B40DD0010AD8B40AD060
:10054800070AD8B407D06C0AD8B4E2D7200AD8B4BE
:10055800DFD7E5D7780E4818D8B41200580E4818D7
:10056800D8B41200A5D79D9AB40E416E060E426EFD
:10057800D9EC03F09D985A0E416E060E426ED4ECEB
:1005880003F0080EB86E900EAB6E240EAC6ECF0E54
:10059800AF6E000EB06E000E176E000E166E200EB7
:1005A800156E000E146E000E136E000E126E9D8AEC
:1005B8001200416E1550D8B4FDD79DB803D041C084
:1005C800ADFF12D09D981750010D800EF324D96EFF
:1005D800000EF420DA6E41C0DFFF172A1F0E1764E1
:1005E80002D0000E176E15069D881200000E416E8F
:1005F8001250D8B4FDD71350010D600EF324D96EF4
:10060800000EF420DA6EDF50416E132A1F0E1364B9
:1006180002D0000E136E9D9A12069D8A4150120058
:10062800260E036E000E046E260E016E000E026E7C
:1006380005820590000E076E000EC76E280EC66E66
:10064800000ECB6E030EC86E9E96A1969D86A08660
:100658001200200E156012D01650010D800EF324E2
:10066800D96E000EF420DA6EDF50AD6E162A1F0E1A
:10067800166402D0000E166E152A12009D981200FC
:10068800000E896E000E8A6E000E8B6EFC0E926E46
:100698009368870E946E040E0F015D6F300E5C6FC9
:1006A8002C0E5B6F000E856EF18E1200ABA202D08D
:1006B800AB98AB881450010D600EF324D96E000E70
:1006C800F420DA6EAECFDFFF142A1F0E146402D0B6
:1006D800000E146E122A1200450E456E000E466E6C
:1006E80003D04750DEEC03F043C0F6FF44C0F7FFE9
:1006F800434A442A0800F5CF47F04750D8B41200BF
:10070800F0D700EE60F0400EEE6AE806FDE100EE7C
:1007180001F02C0EEE6AE806FDE14A904A92000EBE
:10072800F86E000188EF01F02D0E436E7E0E446EC8
:1007380070EC03F03D0E436E7F0E446E70EC03F0D8
:10074800FAEC02F0CBEC03F01200050E0C26000EBA
:100758000D221A2E03D0040E1B6E1200010E1B6E02
:100768001200E7EC03F044EC03F0C0EC03F014ECE7
:1007780003F0B7EC02F01200700ED36E000ED26ECA
:10078800800E9B6E000EB56ED2BE1200FDD702D051
:10079800FAEC02F0E9EC03F00009D8B41200F8D73B
:1007A80041C010F042C011F0120041C00EF042C02A
:1007B8000FF01200426E4250DDEC02F01200C584C8
:1007C800000E1B6E1200D09E120012501200A1964D
:0207D80012000D
:107E2C00000A0A497420776F756C642062652072B1
:107E3C0065616C6C79206E69636520696620746875
:107E4C006572652077617320616E204C4544206F0C
:107E5C006E2074686520626F6172642E2E2E0A0A81
:107E6C00000A0A5468697320697320746865206D70
:107E7C0061696E206D656E752E20204D616B6520DD
:107E8C00612073656C656374696F6E3A200A000A31
:107E9C000A52657475726E696E6720746F206D611D
:107EAC00696E206D656E752E2E2E0A000A0A4368C7
:107EBC006F6F7365207468652072656C61792066DC
:107ECC00756E6374696F6E0A0031203D20426F61DC
:107EDC00726420506F7765722052656C6179204F07
:107EEC0066660A0032203D20426F61726420506F3A
:107EFC007765722052656C6179204F6E0A000A0A10
:107F0C005175697474696E67204170706C69636136
:107F1C0074696F6E2E2E2E0058203D20526574759C
:107F2C00726E20746F206D61696E206D656E750ABE
:107F3C0000507265737320616E79206B65792074C3
:107F4C006F2072657475726E0033203D204261742F
:107F5C00746572792052656C6179204F66660A00EF
:107F6C000A0A496E76616C69642073656C6563748A
:107F7C00696F6E2E2E2E0034203D20426174746584
:107F8C0072792052656C6179204F6E0A00343A2068
:107F9C004261747465727920506F77657220494321
:107FAC000A00333A20426F61726420506F77657219
:107FBC002049430A00323A2052656C617920436FA4
:107FCC006E74726F6C0A00313A204C454420436F3A
:107FDC006E74726F6C0A000A0A53656C656374697F
:107FEC006F6E3A200053656C656374696F6E3A204E
:037FFC0020000062
:020000040020DA
:08000000FFFFFFFFFFFFFFFF00
:020000040030CA
:0E00000033285F3CFFD381FF0FC00FE00F409D
:00000001FF
